:100000000C942A001895000018950000189500001F
:10001000189500001895000018950000189500002C
:10002000189500001895000018950000189500001C
:10003000189500001895000018950000189500000C
:1000400018950000189500001895000018950000FC
:10005000189500008FE58DBFC8E3E0E24E2E84E0E6
:100060008EBFD4E0F4E05F2EA89584B7082E877F7A
:1000700084BF88E1992781BD91BDEEEFF3E0A0E652
:10008000B0E088278D933197E9F7662481E080936B
:10009000600080E88093610080E0809363008FEFD0
:1000A00084BB00916000083081E009F080E08F930C
:1000B00000916100003181E009F080E09F91892387
:1000C000882311F40C94690081E0809363000C9400
:1000D0007F0000916000013081E009F080E08F93A3
:1000E00000916100003881E009F080E09F91892350
:1000F000882311F40C947F0080E0809363000091CA
:10010000600040916100040FA2E6B0E00C930FEF95
:1001100040916200041B05BBE1E0F0E00E94B600E4
:1001200000916300003011F00C94A500A0E6B0E04F
:100130000C9142E0049F0C92A1E6B0E00C9142E0E9
:100140000E94D4000C930C94B200A0E6B0E00C9195
:1001500042E00E94D4000C93A1E6B0E00C9142E092
:10016000049F0C920C945100F894FFCF88EE93E01A
:100170000CD03197D9F708953197F1F70895689425
:1001800062F80895E89462F80895EF93FF93EE27DC
:10019000E82BE92B31F0E0EDF7E03197F1F701972B
:1001A000D1F7FF91EF910895FF93881BF9E0001FAD
:1001B000FA9511F4FF910895881F841B18F4840F99
:0801C0008894F5CF0894F3CFF9
:00000001FF
