:100000000C942A000C94CE000C940A011895000060
:10001000189500001895000018950000189500002C
:10002000189500001895000018950000189500001C
:10003000189500001895000018950000189500000C
:1000400018950000189500001895000018950000FC
:10005000189500008FE58DBFC8E3E0E24E2E84E0E6
:100060008EBFD4E0F4E05F2EA89584B7082E877F7A
:1000700084BF88E1992781BD91BDEEEFF3E0A0E652
:10008000B0E088278D933197E9F766248FEF84BB22
:10009000D39AD49ADC9A7FEF75BBDC98DB9A85B74C
:1000A0008C7F826085BF85B7837F886085BF7894A9
:1000B0007BB770647BBF7BB770687BBFE4E5F1E022
:1000C0000E94460181E0809367000091670006303E
:1000D00018F011F00C9483000E944901A7E6B0E0EB
:1000E000AD90BB24AFE5B0E0AA0DBB1D0E9464013A
:1000F0000C920E944601A7E6B0E08C918F5F8C9332
:1001000010F40C946500709168007F77709368001C
:1001100081E080936700A8E6B0E08C9187FB16F041
:100120000C9496000E94AD000C9498000E94BF00B1
:10013000A7E6B0E0AD90BB24AFE5B0E0AA0DBB1DD3
:100140008C9185BB84EF91E00E9455010C948B004B
:10015000F894FFCF201008040201A7E6B0E08C91CC
:100160008F5F8C9300916700063018F011F00C94AB
:10017000BB000C94BE0081E08093670008958091DD
:10018000670081508093670000916700013010F094
:100190000C94CD0086E08093670008950F921F9223
:1001A0002F923F924F925F927F92AF92BF920F93A6
:1001B0001F932F933F934F935F936F937F938F93EF
:1001C0009F93AF93BF93CF93DF93EF93FF938FB73B
:1001D0008F93709168007F77709368008F918FBFC5
:1001E000FF91EF91DF91CF91BF91AF919F918F914F
:1001F0007F916F915F914F913F912F911F910F913F
:10020000BF90AF907F905F904F903F902F901F9046
:100210000F9018950F921F922F923F924F925F92DC
:100220007F92AF92BF920F931F932F933F934F9361
:100230005F936F937F938F939F93AF93BF93CF936E
:10024000DF93EF93FF938FB78F937091680070687F
:10025000709368008F918FBFFF91EF91DF91CF91E5
:10026000BF91AF919F918F917F916F915F914F91CE
:100270003F912F911F910F91BF90AF907F905F9012
:100280004F903F902F901F900F9018958E2E9F2E7D
:100290000895E82DF92D08953197F1F708956894A0
:1002A00062F80895E89462F80895EF93FF93EE27BB
:1002B000E82BE92B31F0E0EDF7E03197F1F701970A
:1002C000D1F7FF91EF910895C895319600200895D8
:00000001FF
