:100000000C942A001895000018950000189500001F
:10001000189500001895000018950000189500002C
:10002000189500000C94FA0018950000189500002F
:10003000189500001895000018950000189500000C
:1000400018950000189500001895000018950000FC
:10005000189500008FE58DBFC8E3E0E24E2E84E0E6
:100060008EBFD4E0F4E05F2EA89584B7082E877F7A
:1000700084BF88E1992781BD91BDEEEFF3E0A0E652
:10008000B0E088278D933197E9F70E94B00166248C
:100090008FEF81BB80E087BB72EF78BB82E083BFCC
:1000A00079B7716079BF789488E382BF82E083BFBB
:1000B000709160007F777093600080E090E0AAE626
:1000C000B0E08D939C9370916000706470936000B9
:1000D000ECEEF1E00E94760181E0809369000091EE
:1000E0006900083018F011F00C948D000E9479011D
:1000F000A9E6B0E0AD90BB24A0E6B0E0AA0DBB1D20
:100100000E9445020C920E947601A9E6B0E08C9113
:100110008F5F8C9310F40C946F000E948A01A0E60C
:10012000B0E08C9187FB16F40C94A600A9E6B0E031
:100130008C918F5F8C9300916900093011F00C94C1
:10014000A40081E0809369000C94B4008091690060
:1001500081508093690000916900003011F00C9487
:10016000B40088E08093690081E090E00E9436024C
:10017000A9E6B0E0AD90BB24A0E6B0E0AA0DBB1D9F
:100180008C9182BBB1990C94F2000E948A01A0E686
:10019000B0E08C9186FB16F00C94DF008FE711E045
:1001A0000E949D01E2E9F4E00E948301882783BF59
:1001B000709160007F7B709360000C94EE008FE77D
:1001C00011E00E949D01E0EAF4E00E94830182E0D8
:1001D00083BF7091600070647093600084EF91E061
:1001E0000E9436020C948F00F894FFCF80A020600C
:1001F000405010900F921F922F923F924F925F9219
:100200007F92AF92BF920F931F932F933F934F9381
:100210005F936F937F938F939F93AF93BF93CF938E
:10022000DF93EF93FF938FB78F9388E382BFAAE6A4
:10023000B0E00D911C9108395AE3150711F00C94A8
:1002400056010E948A018FE711E00E949D01E0EAB9
:10025000F4E00E94830180E090E0AAE6B0E08D9394
:100260009C93A0E6B0E08C9187FB16F40C944701B8
:100270008FEB11E00E949D01E0EBF4E00E9483010E
:10028000709160007068709360000C9454018FEB63
:1002900011E00E949D01EEEBF4E00E948301709159
:1002A00060007F77709360000C945A01AAE6B0E07A
:1002B0000E947C018F918FBFFF91EF91DF91CF91D1
:1002C000BF91AF919F918F917F916F915F914F916E
:1002D0003F912F911F910F91BF90AF907F905F90B2
:1002E0004F903F902F901F900F9018958E2E9F2E1D
:1002F0000895E82DF92D0895ED91FC91EF5FFF4FE2
:10030000FC93EE9308950E944502802D11F070D069
:10031000FACF089581E07DD020D080E87AD0882778
:1003200080936C0008958FE7213039F08FEB2230F5
:1003300021F083E9233009F083ED810F87FF08C0A6
:1003400083FF06C0804C282F204420936C0003C0FC
:10035000204820936C000C94090283E0992786C002
:100360008AEF90E00E943602D79AD69AD59AD49A0C
:10037000D39AD29ADA9885E090E00E943602DB9810
:10038000DF98DE98DD9ADC9ADB9AEF93FF93E4EC3A
:10039000F0E00E942A02FF91EF91DB9864D0DB9A93
:1003A000EF93FF93E4ECF0E00E942A02FF91EF91BB
:1003B000DB9859D0DB9AEF93FF93E4ECF0E00E94D6
:1003C0002A02FF91EF91DB984ED0DC98DB9AEF93F5
:1003D000FF93E4ECF0E00E942A02FF91EF91DB989A
:1003E00042D088E216D08EE014D086E012D0089574
:1003F00090916C00939590936C00993021F48F93B9
:1004000080EC07D08F91DA9A829505D004D02BD05A
:100410000895DA98F9CF859510F4DC9A01C0DC983C
:10042000859510F4DD9A01C0DD98859510F4DE9A6B
:1004300001C0DE98859510F4DF9A01C0DF98DB9A41
:10044000EF93FF93E4ECF0E00E942A02FF91EF911A
:10045000DB9808953197F1F70895689462F808954C
:10046000E89462F8089581E090E000C0EF93FF9374
:10047000EE27E82BE92B31F0E0EDF7E03197F1F7CB
:100480000197D1F7FF91EF910895C895319600201B
:10049000089554696D65722053746F702121210095
:1004A00054696D65722053746172742121210000BA
:1004B0005368756E20536869205A68656E004E69EE
:0A04C00020536869205A68656E0039
:00000001FF
