:100000000C942A001895000018950000189500001F
:10001000189500001895000018950000189500002C
:10002000189500001895000018950000189500001C
:10003000189500001895000018950000189500000C
:1000400018950000189500001895000018950000FC
:10005000189500008FE58DBFC8E3E0E24E2E84E0E6
:100060008EBFD4E0F4E05F2EA89584B7082E877F7A
:1000700084BF88E1992781BD91BDEEEFF3E0A0E652
:10008000B0E088278D933197E9F76624D79886E802
:1000900086B980E487B9D49AD39A8FEF84BBBB9A90
:1000A00007B1007E076007B90E941B03A0E6B0E01D
:1000B0008D939C930E94D600A0E6B0E00D911C9118
:1000C0000C3251E0150718F011F00C9469000C94F3
:1000D0007A00BB9AECEFF4E08AE090E00197C39AD3
:1000E0000E94EC02C3980E94EC02482F492BB1F702
:1000F0000C94D200A0E6B0E00D911C91043F51E0B9
:10010000150718F011F00C9487000C949800BB9A16
:10011000ECEBF3E08AE090E00197C39A0E94EC02D6
:10012000C3980E94EC02482F492BB1F70C94D200DF
:10013000A0E6B0E00D911C910C3B52E0150718F0C1
:1001400011F00C94A5000C94B600BB9AE8E3F2E021
:100150008AE090E00197C39A0E94EC02C3980E9443
:10016000EC02482F492BB1F70C94D200A0E6B0E086
:100170000D911C91043853E0150718F011F00C9400
:10018000C3000C94D200BB9AEAEAF1E08AE090E066
:100190000197C39A0E94EC02C3980E94EC02482F78
:1001A000492BB1F70C945000F894FFCFA0E6B0E0D3
:1001B0000D911C9148EE53E00E94CF02A2E6B0E000
:1001C0004D935C93A6E6B0E0E2E8F6E00E941503EA
:1001D000A2E6B0E08D919C91D2018D939C9382E038
:1001E0000E940F03E6E6F0E0D2010E94280383E0BC
:1001F0000E940F030E943402249685E00E940B03A4
:1002000085E090E00E94F902A6E6B0E0E6E8F6E0BC
:100210000E941503A0E6B0E00D911C9148EE53E05A
:100220000E94CF02A4E6B0E00D931C93A4E6B0E0D8
:100230000D911C9144E650E00E94CF02A2E6B0E08E
:100240004D935C93A2E6B0E08D919C91D2018D9389
:100250009C9382E00E940F03E6E6F0E0D2010E9448
:10026000280383E00E940F030E943402249685E055
:100270000E940B0385E090E00E94F902A6E6B0E040
:10028000EAE8F6E00E941503A0E6B0E00D911C91AB
:1002900044E650E00E94CF02A4E6B0E00D931C9328
:1002A000A4E6B0E00D911C914AE050E00E94CF021C
:1002B000A2E6B0E04D935C93A2E6B0E08D919C91F4
:1002C000D2018D939C9382E00E940F03E6E6F0E05A
:1002D000D2010E94280383E00E940F030E9434028F
:1002E000249685E00E940B0385E090E00E94F902CD
:1002F000A6E6B0E0EEE8F6E00E941503A0E6B0E066
:100300000D911C914AE050E00E94CF02A2E6B0E0BD
:100310000D931C93A2E6B0E08D919C91D2018D9338
:100320009C9382E00E940F03E6E6F0E0D2010E9477
:10033000280383E00E940F030E943402249685E084
:100340000E940B0385E090E00E94F902089581E08D
:100350000E940F0381E0A881B9818C93AA81BB819F
:100360000D911C91003050E0150711F00C94BE0166
:100370008FE3A881B9818C930C942802013050E05E
:10038000150711F00C94CA0186E0A881B9818C93FD
:100390000C942802023050E0150711F00C94D6019D
:1003A0008BE5A881B9818C930C942802033050E02E
:1003B000150711F00C94E2018FE4A881B9818C93A8
:1003C0000C942802043050E0150711F00C94EE0153
:1003D00086E6A881B9818C930C942802053050E000
:1003E000150711F00C94FA018DE6A881B9818C9360
:1003F0000C942802063050E0150711F00C94060208
:100400008DE7A881B9818C930C942802073050E0C5
:10041000150711F00C94120287E0A881B9818C9322
:100420000C942802083050E0150711F00C941E02BD
:100430008FE7A881B9818C930C942802093050E091
:10044000150711F00C9428028FE6A881B9818C93CE
:10045000A881B9818C91AC81BD818C9381E0481ACF
:1004600080E0580A22960895DB9AA5E3B0E0BA939B
:10047000AA93AC81BD81BA93AA930E94A701249646
:10048000DB98DC9AA5E3B0E0BA93AA93AA81BB817A
:10049000BA93AA930E944F022496DC98089581E0B3
:1004A0000E940F03AA81BB81E2E9F6E00E942D03BE
:1004B00011F00C9461028EEFA881B9818C930C9499
:1004C000A002E6E9F6E00E942D0311F00C946E0202
:1004D0008DEFA881B9818C930C94A002EEE8F6E030
:1004E0000E942D0311F00C947B028BEFA881B9813F
:1004F0008C930C94A002EAE8F6E00E942D0311F020
:100500000C94880287EFA881B9818C930C94A00287
:10051000E6E8F6E00E942D0311F00C9495028FEEB0
:10052000A881B9818C930C94A002E2E8F6E00E94C5
:100530002D0311F00C94A0028FEDA881B9818C934A
:10054000A881B9818C91AC81BD818C9381E0481ADE
:1005500080E0580A2296089500FC10D0089503D038
:100560001ED001F8F9CF0024E89457FF02C009D04B
:10057000689400F80BD010F80124089502D009D037
:100580000895509540954F5F5F4F0895E89417FF89
:100590000895009510950F5F1F4F68940895352FAB
:1005A000242FE894452B11F468940895512F402F7F
:1005B0000027112780E1440F551F001F111F021B48
:1005C000130B416018F4020F131F4E7F8A9599F7A1
:1005D00008953197F1F70895AE2FBF2F11974A2F45
:1005E0004B2BE1F70895689462F80895E89462F857
:1005F0000895EF93FF93EE27E82BE92B31F0E0ED20
:10060000F7E03197F1F70197D1F7FF91EF91089556
:10061000481A590A0895481A8827580A08959927A8
:100620005A924A92480E591E08950E9424030D9230
:100630000020D9F70895369A3699FECF369A369922
:10064000FECF84B195B10895C895319600200895E4
:1006500081918D938823E1F70895689401C0E8940F
:10066000AF93BF938D9116F0919103C00E94240324
:10067000902D891718F011F48823A1F7BF91AF913D
:10068000089577360000773500007734000077331F
:0A069000000077310000773200000F
:00000001FF
