:100000000C942A001895000018950000189500001F
:10001000189500001895000018950000189500002C
:10002000189500001895000018950000189500001C
:1000300018950000189500000C946B0018950000AE
:1000400018950000189500001895000018950000FC
:10005000189500008FE58DBFC8E3E0E24E2E84E0E6
:100060008EBFD4E0F4E05F2EA89584B7082E877F7A
:1000700084BF88E1992781BD91BDEEEFF3E0A0E652
:10008000B0E088278D933197E9F70E9472016624CA
:10009000D098D19886E886B980E487B98EE00E942E
:1000A000CB018CE00E94CB010E944C017894339AE2
:1000B000379A80E080937300A4E7B0E0E8E3F8E0CB
:1000C0000E94000375B77F70706475BF88950C94AB
:1000D0006200F894FFCF0F921F922F923F924F929F
:1000E0005F927F92AF92BF920F931F932F933F9394
:1000F0004F935F936F937F938F939F93AF93BF9330
:10010000CF93DF93EF93FF938FB78F9307B1007E69
:100110008091730090E0890F082707B90E94EF02D1
:10012000A0E6B0E08D939C93E4E7F0E00E94970393
:10013000E0E6F0E0D190E080FF2400270E94B603C3
:100140000E94DE03EDE0F0E0A2E6B0E00E946F0363
:10015000A6E6B0E0E2E6F0E00E9492030E94070209
:1001600000917300003011F00C94E8008FE711E06B
:100170000E945F01A8E0B4E0E3E7F0E00E942603FC
:100180000E94380101E00E94400181E0E6E6F0E0D3
:1001900005E00A93A8E0B4E00E9475030E943801CC
:1001A000ECE3F8E00E94450101E00E944001EEE32B
:1001B000F8E00E944501A8E0B4E0E0E6F0E00E942B
:1001C00016030E94380181E0809373000C9418019B
:1001D0008FEB11E00E945F01A8E0B4E0E3E7F0E0FC
:1001E0000E9426030E94380101E00E94400181E044
:1001F000E6E6F0E005E00A93A8E0B4E00E947503AB
:100200000E943801ECE3F8E00E94450101E00E9401
:100210004001EEE3F8E00E944501A8E0B4E0E0E62A
:10022000F0E00E9416030E94380180E08093730082
:1002300085E090E00E94F8018F918FBFFF91EF91D0
:10024000DF91CF91BF91AF919F918F917F916F91EE
:100250005F914F913F912F911F910F91BF90AF9060
:100260007F905F904F903F902F901F900F90189528
:10027000A8E0B4E08D91882311F07CD0FBCF0895E5
:1002800080E278D00A95E1F708950E94F802802D67
:1002900011F070D0FACF089581E07DD020D080E8B1
:1002A0007AD088278093780008958FE7213039F03D
:1002B0008FEB223021F083E9233009F083ED810FA9
:1002C00087FF08C083FF06C0804C282F204420935E
:1002D000780003C02048209378000C94CB0183E081
:1002E000992786C08AEF90E00E94F801D79AD69AA3
:1002F000D59AD49AD39AD29ADA9885E090E00E945F
:10030000F801DB98DF98DE98DD9ADC9ADB9AEF93B0
:10031000FF93E4ECF0E00E94EC01FF91EF91DB9899
:1003200064D0DB9AEF93FF93E4ECF0E00E94EC01E1
:10033000FF91EF91DB9859D0DB9AEF93FF93E4ECB8
:10034000F0E00E94EC01FF91EF91DB984ED0DC9839
:10035000DB9AEF93FF93E4ECF0E00E94EC01FF9155
:10036000EF91DB9842D088E216D08EE014D086E080
:1003700012D00895909178009395909378009930D9
:1003800021F48F9380EC07D08F91DA9A829505D073
:1003900004D02BD00895DA98F9CF859510F4DC9A23
:1003A00001C0DC98859510F4DD9A01C0DD98859533
:1003B00010F4DE9A01C0DE98859510F4DF9A01C032
:1003C000DF98DB9AEF93FF93E4ECF0E00E94EC01FE
:1003D000FF91EF91DB9808953197F1F708956894B4
:1003E00062F80895E89462F8089581E090E000C012
:1003F000EF93FF93EE27E82BE92B31F0E0EDF7E0E8
:100400003197F1F70197D1F7FF91EF9108958DE2C0
:1004100007FD8D938F2D881F802F881F8F57082FE2
:100420006894F7F8802F87FF15C080958395082F73
:1004300080E38D938EE28D93802F815228F080E3AC
:100440008D9399279C93089544270A95802F09F14D
:1004500096D01FC0805230F09EE49D9381E48D932E
:100460009D93EFCF4427DF92EF92FF920F938FE19E
:10047000801B11F0082F83D089D09EE29D930F91AD
:10048000FF90EF90DF9044270395003209F4D7CF17
:100490002BD03F93EEE1F5E038E12F2D1E2D0D2DF1
:1004A000FF24EE24DD244427000F111F221FA8F48F
:1004B0002F923F920E94F802102C0E94F802202CEA
:1004C0000E94F802302C0E94F8023197410DD21C94
:1004D000E31CF01C3F902F9001C0339631963A9563
:1004E00019F73F9107D0AFCFDD0CEE1CFF1C0A952A
:1004F000D9F70895002719E058D08F93802B11F079
:10050000039501C08F911A95B9F7802F882309F4BC
:1005100096CF8F91805D8D930A95D9F792CF006524
:10052000CD1D80B2E60E40597307A0ACB90350D67A
:10053000DC01286BEE0094357700CA9A3B0065CD4C
:100540001D00B2E60E0059730700ACB90300D6DCFB
:1005500001006BEE0000357700009A3B0000CD1DD6
:100560000000E60E000073070000B9030000DC0184
:100570000000EE000000770000003B000000F69451
:10058000E794D79447950A95D1F7089500270DD0A1
:100590008F9303958F2D8E298D29842BC1F78F91F1
:1005A000805D8D930A95D9F74CCF1F930F93002749
:1005B00010E2440FDD1CEE1CFF1C001F802F9AE090
:1005C000890B10F0082F43951A9599F7802F0F91FA
:1005D0001F91089501911191219130810895369ACA
:1005E0003699FECF369A3699FECF84B195B10895EB
:1005F000C89531960020089591E005C092E003C0AF
:1006000094E001C098E0F4DF0D929A95E1F7089527
:10061000000F111F221F331F08950095109520957C
:1006200030950F5F1F4F2F4F3F4F0895019110815D
:100630000FC00E94EA020EC00E94EA0210C001919F
:10064000108117FF05C03FEF2FEF04C00081112775
:100650002227332737FF03C0E0DF8DE28D93CF924F
:10066000DF92EF92AA24BB24CC24DD24EE2440E2C6
:10067000EAE0FF2755E093E38081890F87FD9F70B3
:1006800083FD907F891B81935A95A9F7C1DFAA1C2E
:10069000BB1CCC1CDD1CEE1C4A9551F7E894EFE026
:1006A000FF2782910CD0EB30E0F71EF068948A2D82
:1006B0000AD088278D93EF90DF90CF900895982FE0
:1006C000829501D0892F8F70805D26F0803309F4E8
:1006D000089568948D93089588278D93089594E0E4
:1006E00081918D939A95E1F70895099191919923BC
:1006F00051F08A95D9F73197002329F081918D9394
:100700000A958823C9F7E8CFB7FE089590E8B9168F
:1007100011F4D0FE08959FEFD91AE90AF90A09F4F5
:1007200003950895D190E190F19001910895219160
:100730003191419151910895652F90E8440F551FD3
:100740005927990F47956078102F90E8FF0C001FEC
:100750000927990FF794107800380895FF0C90E856
:100760009027110F9795F794092F08951127BD2C05
:10077000DE2CEF2CF02E0EE1FF2039F4FE2CED2CB8
:10078000DB2CBB240850C2F710C032F00A95BB0C1A
:10079000DD1CEE1CFF1CF9CFB7DFE0CF9FE7092F70
:1007A000F92A9FEFD92EE92E0895DD24EE24FF24A7
:1007B0000027112708950FE79FEFF2CFBDDFD9F093
:1007C0005038C9F016270058952F90580894091FE3
:1007D00012F418F40EC008F00EC00FD0FF202AF05B
:1007E000BB0CDD1CEE1CFF1C02C0039513F08CDF5C
:1007F000B5CF0C94CE030C94D5039F92FF92EF9249
:100800008D2DFF24EE24DD24BB2493E0849F100172
:10081000829FB00CD11CE21CF31C839FD00CE11C06
:100820002224F21C9A9531F0BD2CDE2CEF2CFF24F3
:100830008F91ECCF9F9008950AC0993B5600414498
:020840003A007C
:00000001FF
