:100000000C942A001895000018950000189500001F
:10001000189500001895000018950000189500002C
:10002000189500001895000018950000189500001C
:10003000189500001895000018950000189500000C
:1000400018950000189500001895000018950000FC
:10005000189500008FE58DBFC8E3E0E24E2E84E0E6
:100060008EBFD4E0F4E05F2EA89584B7082E877F7A
:1000700084BF88E1992781BD91BDEEEFF3E0A0E652
:10008000B0E088278D933197E9F766248FEF84BB22
:100090007EEF75BBE1E0F0E00E948C0081E0809390
:1000A000600000916000073018F011F00C946B00B4
:1000B00091E085B3BB27A8E10E94AA0085BBE1E0DF
:1000C000F0E00E948C00A0E6B0E08C918F5F8C93F2
:1000D00010F40C94510081E0809360000091600066
:1000E000073018F011F00C94880091E085B3BB271D
:1000F000A8E10E94B40085BBE1E0F0E00E948C0022
:10010000A0E6B0E08C918F5F8C9310F40C946E009D
:100110000C944E00F894FFCF88EE93E00CD031970A
:10012000D9F708953197F1F70895689462F8089522
:10013000E89462F80895EF93FF93EE27E82BE92BFC
:1001400031F0E0EDF7E03197F1F70197D1F7FF914A
:10015000EF910895903039F08C91880F08F4816008
:100160009A95D9F78C930895903039F08C918695B3
:0C01700008F480689A95D9F78C930895E4
:00000001FF
