:100000000C942A001895000018950000189500001F
:10001000189500001895000018950000189500002C
:10002000189500001895000018950000189500001C
:10003000189500001895000018950000189500000C
:1000400018950000189500001895000018950000FC
:10005000189500008FE58DBFC8E3E0E24E2E84E0E6
:100060008EBFD4E0F4E05F2EA89584B7082E877F7A
:1000700084BF88E1992781BD91BDEEEFF3E0A0E652
:10008000B0E088278D933197E9F76624D39AD49A04
:100090008FEF84BB80E090E0A0E6B0E08D939C936E
:1000A000A0E6B0E00D911C91003253E015071CF062
:1000B00011F00C946D00DB9A76E075BBDB98DC9A4E
:1000C00077EF75BBDC9881E090E00E940301A0E629
:1000D000B0E00E94F3000C94500080E090E0A0E6B5
:1000E000B0E08D939C93A0E6B0E00D911C91083C8C
:1000F00050E015071CF011F00C94B400DB9A78E383
:1001000075BBDB98DC9A7FEE75BBDC9881E090E0F4
:100110000E940301DB9A7FE375BBDB98DC9A77EFE3
:1001200075BBDC9881E090E00E940301DB9A7EE3DE
:1001300075BBDB98DC9A7BEF75BBDC9881E090E0C7
:100140000E940301DB9A79E775BBDB98DC9A7DEFAF
:1001500075BBDC9881E090E00E940301A0E6B0E06E
:100160000E94F3000C94730080E090E0A0E6B0E001
:100170008D939C93A0E6B0E00D911C91083552E060
:1001800015071CF011F00C94EF00DB9A7EE675BBAE
:10019000DB98DC9A77EF75BBDC9881E090E00E94F9
:1001A0000301DB9A7FE375BBDB98DC9A7BEF75BBC1
:1001B000DC9881E090E00E940301DB9A7EE375BB4E
:1001C000DB98DC9A7DEF75BBDC9881E090E00E94C3
:1001D0000301A0E6B0E00E94F3000C94BA000C9476
:1001E0004A00F894FFCFED91FC91EF5FFF4FFC9335
:1001F000EE9308953197F1F70895689462F80895A1
:10020000E89462F80895EF93FF93EE27E82BE92B2B
:1002100031F0E8EBFBE03197F1F70197D1F7FF916F
:04022000EF910895BD
:00000001FF
