:100000000C942A001895000018950000189500001F
:10001000189500001895000018950000189500002C
:10002000189500001895000018950000189500001C
:10003000189500001895000018950000189500000C
:1000400018950000189500001895000018950000FC
:10005000189500008FE58DBFC8E3E0E24E2E84E0E6
:100060008EBFD4E0F4E05F2EA89584B7082E877F7A
:1000700084BF88E1992781BD91BDEEEFF3E0A0E652
:10008000B0E088278D933197E9F70E94BA01662482
:100090008DE087BB72EF78BB8FEF8ABB0E94F300C5
:1000A000A5E6B0E086B38C93A0E6B0E0E2EAF5E026
:1000B0000E94BD0211F00C94A800A5E6B0E00C91DE
:1000C00007FB16F40C946C00A0E6B0E0E8EAF5E05B
:1000D0000E944F020C94A600A5E6B0E00C9106FB2E
:1000E00016F40C947B00A0E6B0E0ECEAF5E00E9488
:1000F0004F020C94A600A5E6B0E00C9105FB16F4A7
:100100000C948A00A0E6B0E0E0EBF5E00E944F021C
:100110000C94A600A5E6B0E00C9104FB16F40C9438
:100120009900A0E6B0E0E4EBF5E00E944F020C94E9
:10013000A600A5E6B0E00C9101FB16F40C94A60015
:10014000A0E6B0E0E8EBF5E00E944F020C94DF007F
:10015000A5E6B0E00C9107FB81E00EF080E08F9304
:10016000A5E6B0E00C9106FB81E00EF080E09F91E7
:1001700089238F93A5E6B0E00C9105FB81E00EF09A
:1001800080E09F9189238F93A5E6B0E00C9104FB5A
:1001900081E00EF080E09F9189238F93A5E6B0E087
:1001A0000C9101FB81E00EF080E09F918923882370
:1001B00011F40C94DF000E943E010E94F300A0E6BF
:1001C000B0E0E2EAF5E00E94BD0211F40C94EF0009
:1001D000A0E6B0E0BA93AA930E94110122960C9473
:1001E0005000F894FFCFA0E6B0E0E2EAF5E00E940C
:1001F0004F02709166007F77709366000E949F01A6
:100200008FE711E00E94AE01ECEBF5E00E9498014F
:100210008FEB12E00E94AE01ECECF5E00E94980139
:100220000895A6E6B0E08C9187FB16F40C941F01AC
:100230000E949F01709166007068709366008FE75E
:1002400011E00E94AE01EAEDF5E00E9498018FEB0B
:1002500012E00E94AE01EAEEF5E00E94980101E092
:100260000E949301E0EFF5E00E94980101E00E94F6
:100270009301A881B9810E948D01089581E00E94B7
:10028000490284E1A881B9818C93A881B9814C91FC
:1002900001E0041718F011F00C948101E1E0F0E0A6
:1002A0000E94B101A881B9810C91093018F011F0B8
:1002B0000C945C010C946A018FEB1FE00E94AE016C
:1002C000A8E0B4E0E881F9810E9477020E948B01E6
:1002D0000C947A018FEB1FE00E94AE01E2EFF5E093
:1002E0000E949801A8E0B4E0E881F9810E947702B9
:1002F0000E948B01A881B9810E94870110F00C94A3
:10030000450181E0481A80E0580A229608958C91B0
:1003100081508C930895A8E0B4E08D91882311F06A
:1003200071D0FBCF089580E26DD00A95E1F7089572
:100330000E945502802D11F065D0FACF089581E01A
:1003400067D015D080E864C08FE7213039F08FEB9B
:10035000223021F08FE8233009F08FEC810F0C94CC
:10036000080288EE93E081D03197D9F7089583E0B1
:1003700099277BC08AEF90E00E943502D79AD69ADF
:10038000D59AD49AD39AD29ADA9885E090E00E94CE
:100390003502DB98DF98DE98DD9ADC9ADB9AEF93E2
:1003A000FF93E4ECF0E00E942902FF91EF91DB98CB
:1003B00059D0DB9AEF93FF93E4ECF0E00E9429021E
:1003C000FF91EF91DB984ED0DB9AEF93FF93E4EC33
:1003D000F0E00E942902FF91EF91DB9843D0DC9876
:1003E000DB9AEF93FF93E4ECF0E00E942902FF9187
:1003F000EF91DB9837D088E20BD08EE009D086E011
:1004000007D00895DA9A829505D004D02BD00895AC
:10041000DA98F9CF859510F4DC9A01C0DC988595BF
:1004200010F4DD9A01C0DD98859510F4DE9A01C0C4
:10043000DE98859510F4DF9A01C0DF98DB9AEF9380
:10044000FF93E4ECF0E00E942902FF91EF91DB982A
:1004500008953197F1F70895689462F80895E89443
:1004600062F8089581E090E000C0EF93FF93EE27DB
:10047000E82BE92B31F0E0EDF7E03197F1F7019748
:10048000D1F7FF91EF910895019111912191308160
:10049000089599275A924A92480E591E08950E942B
:1004A00055020D920020D9F70895C8953196002085
:1004B0000895000F111F221F331F089500951095F6
:1004C000209530950F5F1F4F2F4F3F4F089501919B
:1004D00010810FC00E9444020EC00E94440210C04E
:1004E0000191108117FF05C03FEF2FEF04C000817D
:1004F00011272227332737FF03C0E0DF8DE28D93DA
:10050000CF92DF92EF92AA24BB24CC24DD24EE24E8
:1005100040E2EAE0FF2755E093E38081890F87FD01
:100520009F7083FD907F891B81935A95A9F7C1DF46
:10053000AA1CBB1CCC1CDD1CEE1C4A9551F7E89490
:10054000EFE0FF2782910CD0EB30E0F71EF06894CB
:100550008A2D0AD088278D93EF90DF90CF90089551
:10056000982F829501D0892F8F70805D26F080337F
:1005700009F4089568948D930895689401C0E894EF
:10058000AF93BF938D9116F0919103C00E945502D5
:10059000902D891718F011F48823A1F7BF91AF911E
:1005A00008956E6F6E650000414337004143360089
:1005B000414335004143340041433100506C617385
:1005C0006520456E746572204B657900546F205329
:1005D000746172742047616D6500546865205769C5
:1005E0006E6572206973203A0000557365720000D1
:0405F0003A0030009D
:00000001FF
