:100000000C942A001895000018950000189500001F
:10001000189500001895000018950000189500002C
:10002000189500001895000018950000189500001C
:10003000189500001895000018950000189500000C
:1000400018950000189500001895000018950000FC
:10005000189500008FE58DBFC8E3E0E24E2E84E0E6
:100060008EBFD4E0F4E05F2EA89584B7082E877F7A
:1000700084BF88E1992781BD91BDEEEFF3E0A0E652
:10008000B0E088278D933197E9F70E94D203662468
:100090008DE087BB72EF78BB8FEF8ABB80E090E08A
:1000A000A8EFB0E08D939C93AAEFB0E0E6E0F9E012
:1000B0000E946D040E94BD03B1990C9461000E94DE
:1000C0008600B4990C9466000E942D01B5990C9499
:1000D0006B000E94EE018EE00E9420048FE711E089
:1000E0000E94CC03E2E1F9E00E94B6038FEB11E03D
:1000F0000E94CC03AAEFB0E00E94B00384EF91E02D
:100100000E9454040C945C00F894FFCFEAE9F5E0F7
:100110000E947F0381E090E0A8EFB0E08D939C9374
:10012000A8EFB0E00D911C91093150E015071CF0CB
:1001300011F00C94B1000E948203A8EFB0E0AD90E2
:10014000BD90AEE5B0E0AA0CBB1CAA0DBB1D0E9481
:1001500079040E947F03A8EFB0E00E9485030C940D
:100160009000ECECF5E00E947F0381E090E0A8EFC6
:10017000B0E08D939C93A8EFB0E00D911C910931F4
:1001800050E015071CF011F00C94DC000E94820373
:10019000A8EFB0E0AD90BD90AAEAB0E0AA0CBB1CFD
:1001A000AA0DBB1D0E9479040E947F03A8EFB0E056
:1001B0000E9485030C94BB000E94BD038FE711E0F1
:1001C0000E94CC03E0E2F9E00E94B6038FEB12E05C
:1001D0000E94CC03EEE2F9E00E94B60381E090E0D9
:1001E000A8EFB0E08D939C93A8EFB0E00D911C9127
:1001F000093150E015071CF011F00C942C01BB9A4A
:10020000A8EFB0E0AD90BD90AEE5B0E0AA0CBB1C8D
:10021000AA0DBB1DED91FC91A8EFB0E0AD90BD9093
:10022000AAEAB0E0AA0CBB1CAA0DBB1D8D919C9143
:100230000197C39A0E944404C3980E944404482F23
:10024000492BB1F782E390E00E945404A8EFB0E09C
:100250000E9485030C94F4000895EEEFF5E00E94EF
:100260007F0381E090E0A8EFB0E08D939C93A8EF2E
:10027000B0E00D911C91003250E015071CF011F018
:100280000C9472010E948203A8EFB0E0AD90BD9083
:10029000AEE5B0E0AA0CBB1CAA0DBB1D0E94790400
:1002A0000E947F03A8EFB0E0AD90BD90AEE5B0E056
:1002B000AA0CBB1CAA0DBB1D0D911C910C591F4F04
:1002C000A8EFB0E0AD90BD90AEE5B0E0AA0CBB1CCD
:1002D000AA0DBB1D0D931C93A8EFB0E00E948503EF
:1002E0000C943701EEE3F6E00E947F0381E090E09A
:1002F000A8EFB0E08D939C93A8EFB0E00D911C9116
:10030000003250E015071CF011F00C949D010E9482
:100310008203A8EFB0E0AD90BD90AAEAB0E0AA0CCD
:10032000BB1CAA0DBB1D0E9479040E947F03A8EF8D
:10033000B0E00E9485030C947C010E94BD038FE70E
:1003400011E00E94CC03E0E2F9E00E94B6038FEBDB
:1003500014E00E94CC03EEE3F9E00E94B60381E0D2
:1003600090E0A8EFB0E08D939C93A8EFB0E00D91E2
:100370001C91003250E015071CF011F00C94ED01B7
:10038000BB9AA8EFB0E0AD90BD90AEE5B0E0AA0C8E
:10039000BB1CAA0DBB1DED91FC91A8EFB0E0AD9088
:1003A000BD90AAEAB0E0AA0CBB1CAA0DBB1D8D91A2
:1003B0009C910197C39A0E944404C3980E944404EC
:1003C000482F492BB1F782E390E00E945404A8EF34
:1003D000B0E00E9485030C94B5010895EEE7F6E0C5
:1003E0000E947F0381E090E0A8EFB0E08D939C93A2
:1003F000A8EFB0E00D911C91003250E015071CF001
:1004000011F00C9433020E948203A8EFB0E0AD908B
:10041000BD90AEE5B0E0AA0CBB1CAA0DBB1D0E94AE
:1004200079040E947F03A8EFB0E0AD90BD90AEE5E7
:10043000B0E0AA0CBB1CAA0DBB1D0D911C910C5960
:100440001F4FA8EFB0E0AD90BD90AEE5B0E0AA0CB4
:10045000BB1CAA0DBB1D0D931C93A8EFB0E00E941E
:1004600085030C94F801EEEBF6E00E947F0381E037
:1004700090E0A8EFB0E08D939C93A8EFB0E00D91D1
:100480001C91003250E015071CF011F00C947A0218
:100490000E948203A8EFB0E0AD90BD90AAEAB0E060
:1004A000AA0CBB1CAA0DBB1D0E9479040E947F03ED
:1004B000A8EFB0E0AD90BD90AAEAB0E0AA0CBB1CDA
:1004C000AA0DBB1D0D911C9148EE53E00E946304E0
:1004D000A8EFB0E0AD90BD90AAEAB0E0AA0CBB1CBA
:1004E000AA0DBB1D0D931C93A8EFB0E00E948503DD
:1004F0000C943D020E94BD038FE711E00E94CC03E3
:10050000E0E2F9E00E94B6038FEB12E00E94CC0318
:10051000EAE4F9E00E94B60381E090E0A8EFB0E0E1
:100520008D939C93A8EFB0E00D911C91003250E0A8
:1005300015071CF011F00C94CA02BB9AA8EFB0E0AA
:10054000AD90BD90AEE5B0E0AA0CBB1CAA0DBB1DE2
:10055000ED91FC91A8EFB0E0AD90BD90AAEAB0E0BB
:10056000AA0CBB1CAA0DBB1D8D919C910197C39A2F
:100570000E944404C3980E944404482F492BB1F7B9
:1005800082E390E00E945404A8EFB0E00E9485034B
:100590000C9492020E94BD030895D400D400BE00C2
:1005A000D4009F00A900D400D400BE00D4008E0067
:1005B0009F00D400D4006A007E009F00A900BE0006
:1005C000770077007E009F008E009F0084032C013F
:1005D000B004B004B004600984039001B004B00416
:1005E000B004600984035802B004B004B0044006AB
:1005F0004006E803E803780578057805B80B0D0098
:100600000F0011000D000D000F0011000D00110072
:10061000120014001100120014001400160014003F
:10062000120011000D001400160014001200110039
:100630000D000F0008000D000F0008000D00D0078E
:10064000D007D007C409D007D007D007C409D00706
:10065000D007C409D007D007C409E803E803E803BA
:10066000E803D007D007E803E803E803E803D0076E
:10067000D007C409C409C409280AF00AB80B0D0040
:100680000D000D0008001100110011000D000D00FB
:10069000110014001400120011000F0000000F00E0
:1006A00011001200120011000F0011000D000D00CA
:1006B00011000F0008000C000F000D0000000100E9
:1006C000010002000200010001000200020001001E
:1006D000010002000200010001000200020001000E
:1006E00001000200020001000100020002000100FE
:1006F00001000200020001000100020002008E2E33
:100700009F2E0895E82DF92D0895ED91FC91EF5F4E
:10071000FF4FFC93EE93089505D00E94630400FC04
:100720000CD008950024E89457FF02C009D06894C3
:1007300000F80BD010F80124089502D009D00895D4
:10074000509540954F5F5F4F0895E89417FF0895C7
:10075000009510950F5F1F4F68940895A8E0B4E0CE
:100760008D91882311F066D0FBCF08950E94730409
:10077000802D11F05FD0FACF089581E061D00FD0C5
:1007800080E85EC08FE7213039F08FEB223021F016
:100790008FE8233009F08FEC810F0C94200483E064
:1007A000992782C08AEF90E00E945404D79AD69A83
:1007B000D59AD49AD39AD29ADA9885E090E00E949A
:1007C0005404DB98DF98DE98DD9ADC9ADB9AEF938D
:1007D000FF93E4ECF0E00E944104FF91EF91DB987D
:1007E00060D0DB9AEF93FF93E4ECF0E00E944104C9
:1007F000FF91EF91DB9855D0DB9AEF93FF93E4ECF8
:10080000F0E00E944104FF91EF91DB984AD0DC9820
:10081000DB9AEF93FF93E4ECF0E00E944104FF9138
:10082000EF91DB983ED088E20BD08EE009D086E0D5
:1008300007D00895DA9A829505D004D032D0089571
:10084000DA98F9CF859510F4DC9A01C0DC9885958B
:1008500010F4DD9A01C0DD98859510F4DE9A01C090
:10086000DE98859510F4DF9A01C0DF98DB9AEF934C
:10087000FF93E4ECF0E00E944104FF91EF91DB98DC
:1008800008953197F1F70895AE2FBF2F11974A2F92
:100890004B2BE1F70895689462F80895E89462F8A4
:1008A000089581E090E000C0EF93FF93EE27E82BDE
:1008B000E92B31F0E0EDF7E03197F1F70197D1F74F
:1008C000FF91EF9108950F92B801469F8001479FD5
:1008D000100D569F100D0F9008950E9473040D92F5
:1008E0000020D9F70895C89531960020089591E029
:1008F00005C092E003C094E001C098E0F4DF0D92DF
:100900009A95E1F708954143312041433220414314
:10091000330053656C656374204D75736963000023
:1009200063757272656E74206D75697363004861DA
:10093000707079204269727468646179000054773C
:100940006F20546967676572000048617070792094
:0A0950004E657720596561720000C2
:00000001FF
