:100000000C942A001895000018950000189500001F
:10001000189500001895000018950000189500002C
:10002000189500001895000018950000189500001C
:10003000189500001895000018950000189500000C
:1000400018950000189500001895000018950000FC
:10005000189500008FE58DBFC8E3E0E24E2E84E0E6
:100060008EBFD4E0F4E05F2EA89584B7082E877F7A
:1000700084BF88E1992781BD91BDEEEFF3E0A0E652
:10008000B0E088278D933197E9F7662480E087BB3D
:1000900071EF78BB8FEF81BB81E080936900AAE6A6
:1000A000B0E0EAEAF2E00E94370170916F007F77DA
:1000B00070936F00EAE2F2E00E94190181E0809300
:1000C000680000916800083018F011F00C947F006F
:1000D0000E941C01A8E6B0E0AD90BB24AFE5B0E003
:1000E000AA0DBB1D0E943D010C920E941901A8E6B9
:1000F000B0E08C918F5F8C9310F40C9461000E949F
:10010000C600AFE6B0E08C9187FB16F40C948A0031
:100110000E948E000C947F00F894FFCFAAE6B0E016
:10012000EAEAF2E00E94410111F00C94A700A8E66F
:10013000B0E08C918F5F8C9300916800093011F0D2
:100140000C94A50081E0809368000C94B500A8E6AB
:10015000B0E08C9181508C9300916800003011F0D8
:100160000C94B50088E080936800A8E6B0E0AD90FC
:10017000BB24AFE5B0E0AA0DBB1D8C9182BBA9E604
:10018000B0E08C9199270E9428010895B1990C94B0
:10019000CE0081E0809369000C94DC00B4990C944B
:1001A000D60082E0809369000C94DC00B5990C9431
:1001B000DC0084E080936900B6990C94FA00AAE60A
:1001C000B0E0EAEAF2E00E94410111F00C94F00084
:1001D000AAE6B0E0E0EBF2E00E9437010C94F600F2
:1001E000AAE6B0E0EAEAF2E00E94370184EF91E08B
:1001F0000E942801B7990C941401AFE6B0E08C91ED
:1002000087FB16F40C940B0170916F00706870936B
:100210006F000C94100170916F007F7770936F00E6
:1002200084EF91E00E942801089580A02060405052
:1002300010908E2E9F2E0895E82DF92D0895319758
:10024000F1F70895689462F80895E89462F80895C3
:10025000EF93FF93EE27E82BE92B31F0E0EDF7E089
:100260003197F1F70197D1F7FF91EF9108950E942F
:100270003D010D920020D9F70895C89531960020D0
:100280000895689401C0E894AF93BF938D9116F0E0
:10029000919103C00E943D01902D891718F011F42F
:1002A0008823A1F7BF91AF9108955368756E000040
:0402B0004E69000093
:00000001FF
